{
  "_format": "hh-sol-artifact-1",
  "contractName": "WavePortal",
  "sourceName": "contracts/WavePortal.sol",
  "abi": [
    {
      "inputs": [],
      "stateMutability": "payable",
      "type": "constructor"
    },
    {
      "anonymous": false,
      "inputs": [
        {
          "indexed": true,
          "internalType": "address",
          "name": "from",
          "type": "address"
        },
        {
          "indexed": false,
          "internalType": "uint256",
          "name": "timestamp",
          "type": "uint256"
        },
        {
          "indexed": false,
          "internalType": "string",
          "name": "message",
          "type": "string"
        }
      ],
      "name": "NewWave",
      "type": "event"
    },
    {
      "inputs": [
        {
          "internalType": "address",
          "name": "",
          "type": "address"
        }
      ],
      "name": "addressToWaves",
      "outputs": [
        {
          "internalType": "uint256",
          "name": "",
          "type": "uint256"
        }
      ],
      "stateMutability": "view",
      "type": "function"
    },
    {
      "inputs": [
        {
          "internalType": "address",
          "name": "_address",
          "type": "address"
        }
      ],
      "name": "getAddressToWaves",
      "outputs": [
        {
          "internalType": "uint256",
          "name": "",
          "type": "uint256"
        }
      ],
      "stateMutability": "view",
      "type": "function"
    },
    {
      "inputs": [],
      "name": "getAllWaves",
      "outputs": [
        {
          "components": [
            {
              "internalType": "address",
              "name": "waver",
              "type": "address"
            },
            {
              "internalType": "string",
              "name": "message",
              "type": "string"
            },
            {
              "internalType": "uint256",
              "name": "timestamp",
              "type": "uint256"
            }
          ],
          "internalType": "struct WavePortal.Wave[]",
          "name": "",
          "type": "tuple[]"
        }
      ],
      "stateMutability": "view",
      "type": "function"
    },
    {
      "inputs": [],
      "name": "getTotalWaves",
      "outputs": [
        {
          "internalType": "uint256",
          "name": "",
          "type": "uint256"
        }
      ],
      "stateMutability": "view",
      "type": "function"
    },
    {
      "inputs": [
        {
          "internalType": "address",
          "name": "",
          "type": "address"
        }
      ],
      "name": "lastWavedAt",
      "outputs": [
        {
          "internalType": "uint256",
          "name": "",
          "type": "uint256"
        }
      ],
      "stateMutability": "view",
      "type": "function"
    },
    {
      "inputs": [
        {
          "internalType": "string",
          "name": "_message",
          "type": "string"
        }
      ],
      "name": "wave",
      "outputs": [],
      "stateMutability": "nonpayable",
      "type": "function"
    }
  ],
  "bytecode": "0x6080604052620000336040518060800160405280604b81526020016200170b604b91396200003960201b620008391760201c565b620001cd565b620000d98160405160240162000050919062000146565b6040516020818303038152906040527f41304fac000000000000000000000000000000000000000000000000000000007bffffffffffffffffffffffffffffffffffffffffffffffffffffffff19166020820180517bffffffffffffffffffffffffffffffffffffffffffffffffffffffff8381831617835250505050620000dc60201b60201c565b50565b60008151905060006a636f6e736f6c652e6c6f679050602083016000808483855afa5050505050565b600062000112826200016a565b6200011e818562000175565b93506200013081856020860162000186565b6200013b81620001bc565b840191505092915050565b6000602082019050818103600083015262000162818462000105565b905092915050565b600081519050919050565b600082825260208201905092915050565b60005b83811015620001a657808201518184015260208101905062000189565b83811115620001b6576000848401525b50505050565b6000601f19601f8301169050919050565b61152e80620001dd6000396000f3fe608060405234801561001057600080fd5b50600436106100625760003560e01c80632d78cbf01461006757806343882ff014610097578063449d46c0146100c75780639a2cdc08146100e3578063a42a466314610101578063bd43a90814610131575b600080fd5b610081600480360381019061007c9190610c91565b61014f565b60405161008e91906110aa565b60405180910390f35b6100b160048036038101906100ac9190610c91565b610167565b6040516100be91906110aa565b60405180910390f35b6100e160048036038101906100dc9190610cba565b61022f565b005b6100eb610685565b6040516100f891906110aa565b60405180910390f35b61011b60048036038101906101169190610c91565b6106d0565b60405161012891906110aa565b60405180910390f35b6101396106e8565b6040516101469190610f23565b60405180910390f35b60026020528060005260406000206000915090505481565b60006101e86040518060400160405280601881526020017f25732077617665642061742075732025642074696d657321000000000000000081525083600260008673ffffffffffffffffffffffffffffffffffffffff1673ffffffffffffffffffffffffffffffffffffffff168152602001908152602001600020546108d2565b600260008373ffffffffffffffffffffffffffffffffffffffff1673ffffffffffffffffffffffffffffffffffffffff168152602001908152602001600020549050919050565b42610384600360003373ffffffffffffffffffffffffffffffffffffffff1673ffffffffffffffffffffffffffffffffffffffff1681526020019081526020016000205461027d91906111bc565b106102bd576040517f08c379a00000000000000000000000000000000000000000000000000000000081526004016102b49061104a565b60405180910390fd5b42600360003373ffffffffffffffffffffffffffffffffffffffff1673ffffffffffffffffffffffffffffffffffffffff16815260200190815260200160002081905550600160008082825461031391906111bc565b925050819055506001600260003373ffffffffffffffffffffffffffffffffffffffff1673ffffffffffffffffffffffffffffffffffffffff168152602001908152602001600020600082825461036a91906111bc565b925050819055506103b16040518060400160405280601b81526020017f25732068617320776176656420772f206d6573736167653a20257300000000008152503383610971565b600460405180606001604052803373ffffffffffffffffffffffffffffffffffffffff16815260200183815260200142815250908060018154018082558091505060019003906000526020600020906003020160009091909190915060008201518160000160006101000a81548173ffffffffffffffffffffffffffffffffffffffff021916908373ffffffffffffffffffffffffffffffffffffffff1602179055506020820151816001019080519060200190610470929190610b71565b5060408201518160020155505060006064600154444261049091906111bc565b61049a91906111bc565b6104a491906112f3565b90506104e56040518060400160405280601581526020017f52616e646f6d20232067656e65726174653a202564000000000000000000000081525082610a10565b806001819055506019811015610631576105346040518060400160405280600781526020017f257320776f6e210000000000000000000000000000000000000000000000000081525033610aac565b6000655af3107a4000905047811115610582576040517f08c379a00000000000000000000000000000000000000000000000000000000081526004016105799061108a565b60405180910390fd5b60003373ffffffffffffffffffffffffffffffffffffffff16826040516105a890610f0e565b60006040518083038185875af1925050503d80600081146105e5576040519150601f19603f3d011682016040523d82523d6000602084013e6105ea565b606091505b505090508061062e576040517f08c379a00000000000000000000000000000000000000000000000000000000081526004016106259061106a565b60405180910390fd5b50505b3373ffffffffffffffffffffffffffffffffffffffff167f5f7e16dc676677766a70e9c5628aa6c54ddb8b6e5188e2ae1e1f17f1ffbea71642846040516106799291906110c5565b60405180910390a25050565b60006106c86040518060400160405280601781526020017f5765206861766520256420746f74616c20776176657321000000000000000000815250600054610a10565b600054905090565b60036020528060005260406000206000915090505481565b60606004805480602002602001604051908101604052809291908181526020016000905b8282101561083057838290600052602060002090600302016040518060600160405290816000820160009054906101000a900473ffffffffffffffffffffffffffffffffffffffff1673ffffffffffffffffffffffffffffffffffffffff1673ffffffffffffffffffffffffffffffffffffffff16815260200160018201805461079590611290565b80601f01602080910402602001604051908101604052809291908181526020018280546107c190611290565b801561080e5780601f106107e35761010080835404028352916020019161080e565b820191906000526020600020905b8154815290600101906020018083116107f157829003601f168201915b505050505081526020016002820154815250508152602001906001019061070c565b50505050905090565b6108cf8160405160240161084d9190610f45565b6040516020818303038152906040527f41304fac000000000000000000000000000000000000000000000000000000007bffffffffffffffffffffffffffffffffffffffffffffffffffffffff19166020820180517bffffffffffffffffffffffffffffffffffffffffffffffffffffffff8381831617835250505050610b48565b50565b61096c8383836040516024016108ea93929190610fdc565b6040516020818303038152906040527f07c81217000000000000000000000000000000000000000000000000000000007bffffffffffffffffffffffffffffffffffffffffffffffffffffffff19166020820180517bffffffffffffffffffffffffffffffffffffffffffffffffffffffff8381831617835250505050610b48565b505050565b610a0b83838360405160240161098993929190610f97565b6040516020818303038152906040527fe0e9ad4f000000000000000000000000000000000000000000000000000000007bffffffffffffffffffffffffffffffffffffffffffffffffffffffff19166020820180517bffffffffffffffffffffffffffffffffffffffffffffffffffffffff8381831617835250505050610b48565b505050565b610aa88282604051602401610a2692919061101a565b6040516020818303038152906040527f9710a9d0000000000000000000000000000000000000000000000000000000007bffffffffffffffffffffffffffffffffffffffffffffffffffffffff19166020820180517bffffffffffffffffffffffffffffffffffffffffffffffffffffffff8381831617835250505050610b48565b5050565b610b448282604051602401610ac2929190610f67565b6040516020818303038152906040527f319af333000000000000000000000000000000000000000000000000000000007bffffffffffffffffffffffffffffffffffffffffffffffffffffffff19166020820180517bffffffffffffffffffffffffffffffffffffffffffffffffffffffff8381831617835250505050610b48565b5050565b60008151905060006a636f6e736f6c652e6c6f679050602083016000808483855afa5050505050565b828054610b7d90611290565b90600052602060002090601f016020900481019282610b9f5760008555610be6565b82601f10610bb857805160ff1916838001178555610be6565b82800160010185558215610be6579182015b82811115610be5578251825591602001919060010190610bca565b5b509050610bf39190610bf7565b5090565b5b80821115610c10576000816000905550600101610bf8565b5090565b6000610c27610c228461111a565b6110f5565b905082815260208101848484011115610c3f57600080fd5b610c4a84828561124e565b509392505050565b600081359050610c61816114e1565b92915050565b600082601f830112610c7857600080fd5b8135610c88848260208601610c14565b91505092915050565b600060208284031215610ca357600080fd5b6000610cb184828501610c52565b91505092915050565b600060208284031215610ccc57600080fd5b600082013567ffffffffffffffff811115610ce657600080fd5b610cf284828501610c67565b91505092915050565b6000610d078383610ea0565b905092915050565b610d1881611212565b82525050565b610d2781611212565b82525050565b6000610d388261115b565b610d42818561117e565b935083602082028501610d548561114b565b8060005b85811015610d905784840389528151610d718582610cfb565b9450610d7c83611171565b925060208a01995050600181019050610d58565b50829750879550505050505092915050565b6000610dad82611166565b610db7818561119a565b9350610dc781856020860161125d565b610dd0816113e0565b840191505092915050565b6000610de682611166565b610df081856111ab565b9350610e0081856020860161125d565b610e09816113e0565b840191505092915050565b6000610e216023836111ab565b9150610e2c826113f1565b604082019050919050565b6000610e446027836111ab565b9150610e4f82611440565b604082019050919050565b6000610e676035836111ab565b9150610e728261148f565b604082019050919050565b6000610e8a60008361118f565b9150610e95826114de565b600082019050919050565b6000606083016000830151610eb86000860182610d0f565b5060208301518482036020860152610ed08282610da2565b9150506040830151610ee56040860182610ef0565b508091505092915050565b610ef981611244565b82525050565b610f0881611244565b82525050565b6000610f1982610e7d565b9150819050919050565b60006020820190508181036000830152610f3d8184610d2d565b905092915050565b60006020820190508181036000830152610f5f8184610ddb565b905092915050565b60006040820190508181036000830152610f818185610ddb565b9050610f906020830184610d1e565b9392505050565b60006060820190508181036000830152610fb18186610ddb565b9050610fc06020830185610d1e565b8181036040830152610fd28184610ddb565b9050949350505050565b60006060820190508181036000830152610ff68186610ddb565b90506110056020830185610d1e565b6110126040830184610eff565b949350505050565b600060408201905081810360008301526110348185610ddb565b90506110436020830184610eff565b9392505050565b6000602082019050818103600083015261106381610e14565b9050919050565b6000602082019050818103600083015261108381610e37565b9050919050565b600060208201905081810360008301526110a381610e5a565b9050919050565b60006020820190506110bf6000830184610eff565b92915050565b60006040820190506110da6000830185610eff565b81810360208301526110ec8184610ddb565b90509392505050565b60006110ff611110565b905061110b82826112c2565b919050565b6000604051905090565b600067ffffffffffffffff821115611135576111346113b1565b5b61113e826113e0565b9050602081019050919050565b6000819050602082019050919050565b600081519050919050565b600081519050919050565b6000602082019050919050565b600082825260208201905092915050565b600081905092915050565b600082825260208201905092915050565b600082825260208201905092915050565b60006111c782611244565b91506111d283611244565b9250827fffffffffffffffffffffffffffffffffffffffffffffffffffffffffffffffff0382111561120757611206611324565b5b828201905092915050565b600061121d82611224565b9050919050565b600073ffffffffffffffffffffffffffffffffffffffff82169050919050565b6000819050919050565b82818337600083830152505050565b60005b8381101561127b578082015181840152602081019050611260565b8381111561128a576000848401525b50505050565b600060028204905060018216806112a857607f821691505b602082108114156112bc576112bb611382565b5b50919050565b6112cb826113e0565b810181811067ffffffffffffffff821117156112ea576112e96113b1565b5b80604052505050565b60006112fe82611244565b915061130983611244565b92508261131957611318611353565b5b828206905092915050565b7f4e487b7100000000000000000000000000000000000000000000000000000000600052601160045260246000fd5b7f4e487b7100000000000000000000000000000000000000000000000000000000600052601260045260246000fd5b7f4e487b7100000000000000000000000000000000000000000000000000000000600052602260045260246000fd5b7f4e487b7100000000000000000000000000000000000000000000000000000000600052604160045260246000fd5b6000601f19601f8301169050919050565b7f596f75206861766520746f20776169742031356d206265747765656e2077617660008201527f6573210000000000000000000000000000000000000000000000000000000000602082015250565b7f4661696c656420746f207769746864726177206d6f6e65792066726f6d20636f60008201527f6e74726163742e00000000000000000000000000000000000000000000000000602082015250565b7f547279696e6720746f207769746864726177206d6f7265206d6f6e657920746860008201527f616e207468697320636f6e7472616374206861732e0000000000000000000000602082015250565b50565b6114ea81611212565b81146114f557600080fd5b5056fea26469706673582212204ca33f56b9c1b27fba0b8be451e40dce579d048c3b464abc493ea0405ce780ce64736f6c6343000804003354686973206973206d7920736d61727420636f6e74726163742e20546865726520617265206d616e79206c696b6520746869732e204275742c2074686973206f6e65206973206d696e652e",
  "linkReferences": {},
  "deployedLinkReferences": {}
}