{
  "_format": "hh-sol-artifact-1",
  "contractName": "WavePortal",
  "sourceName": "contracts/WavePortal.sol",
  "abi": [
    {
      "inputs": [],
      "stateMutability": "payable",
      "type": "constructor"
    },
    {
      "anonymous": false,
      "inputs": [
        {
          "indexed": true,
          "internalType": "address",
          "name": "from",
          "type": "address"
        },
        {
          "indexed": false,
          "internalType": "uint256",
          "name": "timestamp",
          "type": "uint256"
        },
        {
          "indexed": false,
          "internalType": "string",
          "name": "message",
          "type": "string"
        }
      ],
      "name": "NewWave",
      "type": "event"
    },
    {
      "inputs": [
        {
          "internalType": "address",
          "name": "",
          "type": "address"
        }
      ],
      "name": "addressToWaves",
      "outputs": [
        {
          "internalType": "uint256",
          "name": "",
          "type": "uint256"
        }
      ],
      "stateMutability": "view",
      "type": "function"
    },
    {
      "inputs": [
        {
          "internalType": "address",
          "name": "_address",
          "type": "address"
        }
      ],
      "name": "getAddressToWaves",
      "outputs": [
        {
          "internalType": "uint256",
          "name": "",
          "type": "uint256"
        }
      ],
      "stateMutability": "view",
      "type": "function"
    },
    {
      "inputs": [],
      "name": "getAllWaves",
      "outputs": [
        {
          "components": [
            {
              "internalType": "address",
              "name": "waver",
              "type": "address"
            },
            {
              "internalType": "string",
              "name": "message",
              "type": "string"
            },
            {
              "internalType": "uint256",
              "name": "timestamp",
              "type": "uint256"
            }
          ],
          "internalType": "struct WavePortal.Wave[]",
          "name": "",
          "type": "tuple[]"
        }
      ],
      "stateMutability": "view",
      "type": "function"
    },
    {
      "inputs": [],
      "name": "getTotalWaves",
      "outputs": [
        {
          "internalType": "uint256",
          "name": "",
          "type": "uint256"
        }
      ],
      "stateMutability": "view",
      "type": "function"
    },
    {
      "inputs": [
        {
          "internalType": "address",
          "name": "",
          "type": "address"
        }
      ],
      "name": "lastWavedAt",
      "outputs": [
        {
          "internalType": "uint256",
          "name": "",
          "type": "uint256"
        }
      ],
      "stateMutability": "view",
      "type": "function"
    },
    {
      "inputs": [
        {
          "internalType": "string",
          "name": "_message",
          "type": "string"
        }
      ],
      "name": "wave",
      "outputs": [],
      "stateMutability": "nonpayable",
      "type": "function"
    }
  ],
  "bytecode": "0x6080604052620000336040518060800160405280604b81526020016200170a604b91396200003960201b620008381760201c565b620001cd565b620000d98160405160240162000050919062000146565b6040516020818303038152906040527f41304fac000000000000000000000000000000000000000000000000000000007bffffffffffffffffffffffffffffffffffffffffffffffffffffffff19166020820180517bffffffffffffffffffffffffffffffffffffffffffffffffffffffff8381831617835250505050620000dc60201b60201c565b50565b60008151905060006a636f6e736f6c652e6c6f679050602083016000808483855afa5050505050565b600062000112826200016a565b6200011e818562000175565b93506200013081856020860162000186565b6200013b81620001bc565b840191505092915050565b6000602082019050818103600083015262000162818462000105565b905092915050565b600081519050919050565b600082825260208201905092915050565b60005b83811015620001a657808201518184015260208101905062000189565b83811115620001b6576000848401525b50505050565b6000601f19601f8301169050919050565b61152d80620001dd6000396000f3fe608060405234801561001057600080fd5b50600436106100625760003560e01c80632d78cbf01461006757806343882ff014610097578063449d46c0146100c75780639a2cdc08146100e3578063a42a466314610101578063bd43a90814610131575b600080fd5b610081600480360381019061007c9190610c90565b61014f565b60405161008e91906110a9565b60405180910390f35b6100b160048036038101906100ac9190610c90565b610167565b6040516100be91906110a9565b60405180910390f35b6100e160048036038101906100dc9190610cb9565b61022f565b005b6100eb610684565b6040516100f891906110a9565b60405180910390f35b61011b60048036038101906101169190610c90565b6106cf565b60405161012891906110a9565b60405180910390f35b6101396106e7565b6040516101469190610f22565b60405180910390f35b60026020528060005260406000206000915090505481565b60006101e86040518060400160405280601881526020017f25732077617665642061742075732025642074696d657321000000000000000081525083600260008673ffffffffffffffffffffffffffffffffffffffff1673ffffffffffffffffffffffffffffffffffffffff168152602001908152602001600020546108d1565b600260008373ffffffffffffffffffffffffffffffffffffffff1673ffffffffffffffffffffffffffffffffffffffff168152602001908152602001600020549050919050565b42603c600360003373ffffffffffffffffffffffffffffffffffffffff1673ffffffffffffffffffffffffffffffffffffffff1681526020019081526020016000205461027c91906111bb565b106102bc576040517f08c379a00000000000000000000000000000000000000000000000000000000081526004016102b390611069565b60405180910390fd5b42600360003373ffffffffffffffffffffffffffffffffffffffff1673ffffffffffffffffffffffffffffffffffffffff16815260200190815260200160002081905550600160008082825461031291906111bb565b925050819055506001600260003373ffffffffffffffffffffffffffffffffffffffff1673ffffffffffffffffffffffffffffffffffffffff168152602001908152602001600020600082825461036991906111bb565b925050819055506103b06040518060400160405280601b81526020017f25732068617320776176656420772f206d6573736167653a20257300000000008152503383610970565b600460405180606001604052803373ffffffffffffffffffffffffffffffffffffffff16815260200183815260200142815250908060018154018082558091505060019003906000526020600020906003020160009091909190915060008201518160000160006101000a81548173ffffffffffffffffffffffffffffffffffffffff021916908373ffffffffffffffffffffffffffffffffffffffff160217905550602082015181600101908051906020019061046f929190610b70565b5060408201518160020155505060006064600154444261048f91906111bb565b61049991906111bb565b6104a391906112f2565b90506104e46040518060400160405280601581526020017f52616e646f6d20232067656e65726174653a202564000000000000000000000081525082610a0f565b806001819055506019811015610630576105336040518060400160405280600781526020017f257320776f6e210000000000000000000000000000000000000000000000000081525033610aab565b6000655af3107a4000905047811115610581576040517f08c379a000000000000000000000000000000000000000000000000000000000815260040161057890611089565b60405180910390fd5b60003373ffffffffffffffffffffffffffffffffffffffff16826040516105a790610f0d565b60006040518083038185875af1925050503d80600081146105e4576040519150601f19603f3d011682016040523d82523d6000602084013e6105e9565b606091505b505090508061062d576040517f08c379a000000000000000000000000000000000000000000000000000000000815260040161062490611049565b60405180910390fd5b50505b3373ffffffffffffffffffffffffffffffffffffffff167f5f7e16dc676677766a70e9c5628aa6c54ddb8b6e5188e2ae1e1f17f1ffbea71642846040516106789291906110c4565b60405180910390a25050565b60006106c76040518060400160405280601781526020017f5765206861766520256420746f74616c20776176657321000000000000000000815250600054610a0f565b600054905090565b60036020528060005260406000206000915090505481565b60606004805480602002602001604051908101604052809291908181526020016000905b8282101561082f57838290600052602060002090600302016040518060600160405290816000820160009054906101000a900473ffffffffffffffffffffffffffffffffffffffff1673ffffffffffffffffffffffffffffffffffffffff1673ffffffffffffffffffffffffffffffffffffffff1681526020016001820180546107949061128f565b80601f01602080910402602001604051908101604052809291908181526020018280546107c09061128f565b801561080d5780601f106107e25761010080835404028352916020019161080d565b820191906000526020600020905b8154815290600101906020018083116107f057829003601f168201915b505050505081526020016002820154815250508152602001906001019061070b565b50505050905090565b6108ce8160405160240161084c9190610f44565b6040516020818303038152906040527f41304fac000000000000000000000000000000000000000000000000000000007bffffffffffffffffffffffffffffffffffffffffffffffffffffffff19166020820180517bffffffffffffffffffffffffffffffffffffffffffffffffffffffff8381831617835250505050610b47565b50565b61096b8383836040516024016108e993929190610fdb565b6040516020818303038152906040527f07c81217000000000000000000000000000000000000000000000000000000007bffffffffffffffffffffffffffffffffffffffffffffffffffffffff19166020820180517bffffffffffffffffffffffffffffffffffffffffffffffffffffffff8381831617835250505050610b47565b505050565b610a0a83838360405160240161098893929190610f96565b6040516020818303038152906040527fe0e9ad4f000000000000000000000000000000000000000000000000000000007bffffffffffffffffffffffffffffffffffffffffffffffffffffffff19166020820180517bffffffffffffffffffffffffffffffffffffffffffffffffffffffff8381831617835250505050610b47565b505050565b610aa78282604051602401610a25929190611019565b6040516020818303038152906040527f9710a9d0000000000000000000000000000000000000000000000000000000007bffffffffffffffffffffffffffffffffffffffffffffffffffffffff19166020820180517bffffffffffffffffffffffffffffffffffffffffffffffffffffffff8381831617835250505050610b47565b5050565b610b438282604051602401610ac1929190610f66565b6040516020818303038152906040527f319af333000000000000000000000000000000000000000000000000000000007bffffffffffffffffffffffffffffffffffffffffffffffffffffffff19166020820180517bffffffffffffffffffffffffffffffffffffffffffffffffffffffff8381831617835250505050610b47565b5050565b60008151905060006a636f6e736f6c652e6c6f679050602083016000808483855afa5050505050565b828054610b7c9061128f565b90600052602060002090601f016020900481019282610b9e5760008555610be5565b82601f10610bb757805160ff1916838001178555610be5565b82800160010185558215610be5579182015b82811115610be4578251825591602001919060010190610bc9565b5b509050610bf29190610bf6565b5090565b5b80821115610c0f576000816000905550600101610bf7565b5090565b6000610c26610c2184611119565b6110f4565b905082815260208101848484011115610c3e57600080fd5b610c4984828561124d565b509392505050565b600081359050610c60816114e0565b92915050565b600082601f830112610c7757600080fd5b8135610c87848260208601610c13565b91505092915050565b600060208284031215610ca257600080fd5b6000610cb084828501610c51565b91505092915050565b600060208284031215610ccb57600080fd5b600082013567ffffffffffffffff811115610ce557600080fd5b610cf184828501610c66565b91505092915050565b6000610d068383610e9f565b905092915050565b610d1781611211565b82525050565b610d2681611211565b82525050565b6000610d378261115a565b610d41818561117d565b935083602082028501610d538561114a565b8060005b85811015610d8f5784840389528151610d708582610cfa565b9450610d7b83611170565b925060208a01995050600181019050610d57565b50829750879550505050505092915050565b6000610dac82611165565b610db68185611199565b9350610dc681856020860161125c565b610dcf816113df565b840191505092915050565b6000610de582611165565b610def81856111aa565b9350610dff81856020860161125c565b610e08816113df565b840191505092915050565b6000610e206027836111aa565b9150610e2b826113f0565b604082019050919050565b6000610e436027836111aa565b9150610e4e8261143f565b604082019050919050565b6000610e666035836111aa565b9150610e718261148e565b604082019050919050565b6000610e8960008361118e565b9150610e94826114dd565b600082019050919050565b6000606083016000830151610eb76000860182610d0e565b5060208301518482036020860152610ecf8282610da1565b9150506040830151610ee46040860182610eef565b508091505092915050565b610ef881611243565b82525050565b610f0781611243565b82525050565b6000610f1882610e7c565b9150819050919050565b60006020820190508181036000830152610f3c8184610d2c565b905092915050565b60006020820190508181036000830152610f5e8184610dda565b905092915050565b60006040820190508181036000830152610f808185610dda565b9050610f8f6020830184610d1d565b9392505050565b60006060820190508181036000830152610fb08186610dda565b9050610fbf6020830185610d1d565b8181036040830152610fd18184610dda565b9050949350505050565b60006060820190508181036000830152610ff58186610dda565b90506110046020830185610d1d565b6110116040830184610efe565b949350505050565b600060408201905081810360008301526110338185610dda565b90506110426020830184610efe565b9392505050565b6000602082019050818103600083015261106281610e13565b9050919050565b6000602082019050818103600083015261108281610e36565b9050919050565b600060208201905081810360008301526110a281610e59565b9050919050565b60006020820190506110be6000830184610efe565b92915050565b60006040820190506110d96000830185610efe565b81810360208301526110eb8184610dda565b90509392505050565b60006110fe61110f565b905061110a82826112c1565b919050565b6000604051905090565b600067ffffffffffffffff821115611134576111336113b0565b5b61113d826113df565b9050602081019050919050565b6000819050602082019050919050565b600081519050919050565b600081519050919050565b6000602082019050919050565b600082825260208201905092915050565b600081905092915050565b600082825260208201905092915050565b600082825260208201905092915050565b60006111c682611243565b91506111d183611243565b9250827fffffffffffffffffffffffffffffffffffffffffffffffffffffffffffffffff0382111561120657611205611323565b5b828201905092915050565b600061121c82611223565b9050919050565b600073ffffffffffffffffffffffffffffffffffffffff82169050919050565b6000819050919050565b82818337600083830152505050565b60005b8381101561127a57808201518184015260208101905061125f565b83811115611289576000848401525b50505050565b600060028204905060018216806112a757607f821691505b602082108114156112bb576112ba611381565b5b50919050565b6112ca826113df565b810181811067ffffffffffffffff821117156112e9576112e86113b0565b5b80604052505050565b60006112fd82611243565b915061130883611243565b92508261131857611317611352565b5b828206905092915050565b7f4e487b7100000000000000000000000000000000000000000000000000000000600052601160045260246000fd5b7f4e487b7100000000000000000000000000000000000000000000000000000000600052601260045260246000fd5b7f4e487b7100000000000000000000000000000000000000000000000000000000600052602260045260246000fd5b7f4e487b7100000000000000000000000000000000000000000000000000000000600052604160045260246000fd5b6000601f19601f8301169050919050565b7f4661696c656420746f207769746864726177206d6f6e65792066726f6d20636f60008201527f6e74726163742e00000000000000000000000000000000000000000000000000602082015250565b7f4d75737420776169742031206d696e757465206265666f726520776176696e6760008201527f20616761696e2100000000000000000000000000000000000000000000000000602082015250565b7f547279696e6720746f207769746864726177206d6f7265206d6f6e657920746860008201527f616e207468697320636f6e7472616374206861732e0000000000000000000000602082015250565b50565b6114e981611211565b81146114f457600080fd5b5056fea26469706673582212209c8c7e07871bfdb4888024d891eaec06590d3f05a0bc32e5b29792c052abe9d564736f6c6343000804003354686973206973206d7920736d61727420636f6e74726163742e20546865726520617265206d616e79206c696b6520746869732e204275742c2074686973206f6e65206973206d696e652e",
  "linkReferences": {},
  "deployedLinkReferences": {}
}