{
  "_format": "hh-sol-artifact-1",
  "contractName": "WavePortal",
  "sourceName": "contracts/WavePortal.sol",
  "abi": [
    {
      "inputs": [],
      "stateMutability": "payable",
      "type": "constructor"
    },
    {
      "anonymous": false,
      "inputs": [
        {
          "indexed": true,
          "internalType": "address",
          "name": "from",
          "type": "address"
        },
        {
          "indexed": false,
          "internalType": "uint256",
          "name": "timestamp",
          "type": "uint256"
        },
        {
          "indexed": false,
          "internalType": "string",
          "name": "message",
          "type": "string"
        }
      ],
      "name": "NewWave",
      "type": "event"
    },
    {
      "inputs": [
        {
          "internalType": "address",
          "name": "",
          "type": "address"
        }
      ],
      "name": "addressToWaves",
      "outputs": [
        {
          "internalType": "uint256",
          "name": "",
          "type": "uint256"
        }
      ],
      "stateMutability": "view",
      "type": "function"
    },
    {
      "inputs": [
        {
          "internalType": "address",
          "name": "_address",
          "type": "address"
        }
      ],
      "name": "getAddressToWaves",
      "outputs": [
        {
          "internalType": "uint256",
          "name": "",
          "type": "uint256"
        }
      ],
      "stateMutability": "view",
      "type": "function"
    },
    {
      "inputs": [],
      "name": "getAllWaves",
      "outputs": [
        {
          "components": [
            {
              "internalType": "address",
              "name": "waver",
              "type": "address"
            },
            {
              "internalType": "string",
              "name": "message",
              "type": "string"
            },
            {
              "internalType": "uint256",
              "name": "timestamp",
              "type": "uint256"
            }
          ],
          "internalType": "struct WavePortal.Wave[]",
          "name": "",
          "type": "tuple[]"
        }
      ],
      "stateMutability": "view",
      "type": "function"
    },
    {
      "inputs": [],
      "name": "getTotalWaves",
      "outputs": [
        {
          "internalType": "uint256",
          "name": "",
          "type": "uint256"
        }
      ],
      "stateMutability": "view",
      "type": "function"
    },
    {
      "inputs": [
        {
          "internalType": "string",
          "name": "_message",
          "type": "string"
        }
      ],
      "name": "wave",
      "outputs": [],
      "stateMutability": "nonpayable",
      "type": "function"
    }
  ],
  "bytecode": "0x6080604052620000336040518060800160405280604b81526020016200136e604b91396200003960201b6200065a1760201c565b620001cd565b620000d98160405160240162000050919062000146565b6040516020818303038152906040527f41304fac000000000000000000000000000000000000000000000000000000007bffffffffffffffffffffffffffffffffffffffffffffffffffffffff19166020820180517bffffffffffffffffffffffffffffffffffffffffffffffffffffffff8381831617835250505050620000dc60201b60201c565b50565b60008151905060006a636f6e736f6c652e6c6f679050602083016000808483855afa5050505050565b600062000112826200016a565b6200011e818562000175565b93506200013081856020860162000186565b6200013b81620001bc565b840191505092915050565b6000602082019050818103600083015262000162818462000105565b905092915050565b600081519050919050565b600082825260208201905092915050565b60005b83811015620001a657808201518184015260208101905062000189565b83811115620001b6576000848401525b50505050565b6000601f19601f8301169050919050565b61119180620001dd6000396000f3fe608060405234801561001057600080fd5b50600436106100575760003560e01c80632d78cbf01461005c57806343882ff01461008c578063449d46c0146100bc5780639a2cdc08146100d8578063bd43a908146100f6575b600080fd5b61007660048036038101906100719190610a16565b610114565b6040516100839190610dbc565b60405180910390f35b6100a660048036038101906100a19190610a16565b61012c565b6040516100b39190610dbc565b60405180910390f35b6100d660048036038101906100d19190610a3f565b6101f4565b005b6100e06104be565b6040516100ed9190610dbc565b60405180910390f35b6100fe610509565b60405161010b9190610c85565b60405180910390f35b60016020528060005260406000206000915090505481565b60006101ad6040518060400160405280601881526020017f25732077617665642061742075732025642074696d657321000000000000000081525083600160008673ffffffffffffffffffffffffffffffffffffffff1673ffffffffffffffffffffffffffffffffffffffff168152602001908152602001600020546106f3565b600160008373ffffffffffffffffffffffffffffffffffffffff1673ffffffffffffffffffffffffffffffffffffffff168152602001908152602001600020549050919050565b60016000808282546102069190610ece565b9250508190555060018060003373ffffffffffffffffffffffffffffffffffffffff1673ffffffffffffffffffffffffffffffffffffffff168152602001908152602001600020600082825461025c9190610ece565b925050819055506102a36040518060400160405280601b81526020017f25732068617320776176656420772f206d6573736167653a20257300000000008152503383610792565b600260405180606001604052803373ffffffffffffffffffffffffffffffffffffffff16815260200183815260200142815250908060018154018082558091505060019003906000526020600020906003020160009091909190915060008201518160000160006101000a81548173ffffffffffffffffffffffffffffffffffffffff021916908373ffffffffffffffffffffffffffffffffffffffff16021790555060208201518160010190805190602001906103629291906108f6565b506040820151816002015550503373ffffffffffffffffffffffffffffffffffffffff167f5f7e16dc676677766a70e9c5628aa6c54ddb8b6e5188e2ae1e1f17f1ffbea71642836040516103b7929190610dd7565b60405180910390a26000655af3107a400090504781111561040d576040517f08c379a000000000000000000000000000000000000000000000000000000000815260040161040490610d9c565b60405180910390fd5b60003373ffffffffffffffffffffffffffffffffffffffff168260405161043390610c70565b60006040518083038185875af1925050503d8060008114610470576040519150601f19603f3d011682016040523d82523d6000602084013e610475565b606091505b50509050806104b9576040517f08c379a00000000000000000000000000000000000000000000000000000000081526004016104b090610d7c565b60405180910390fd5b505050565b60006105016040518060400160405280601781526020017f5765206861766520256420746f74616c20776176657321000000000000000000815250600054610831565b600054905090565b60606002805480602002602001604051908101604052809291908181526020016000905b8282101561065157838290600052602060002090600302016040518060600160405290816000820160009054906101000a900473ffffffffffffffffffffffffffffffffffffffff1673ffffffffffffffffffffffffffffffffffffffff1673ffffffffffffffffffffffffffffffffffffffff1681526020016001820180546105b690610fa2565b80601f01602080910402602001604051908101604052809291908181526020018280546105e290610fa2565b801561062f5780601f106106045761010080835404028352916020019161062f565b820191906000526020600020905b81548152906001019060200180831161061257829003601f168201915b505050505081526020016002820154815250508152602001906001019061052d565b50505050905090565b6106f08160405160240161066e9190610ca7565b6040516020818303038152906040527f41304fac000000000000000000000000000000000000000000000000000000007bffffffffffffffffffffffffffffffffffffffffffffffffffffffff19166020820180517bffffffffffffffffffffffffffffffffffffffffffffffffffffffff83818316178352505050506108cd565b50565b61078d83838360405160240161070b93929190610d0e565b6040516020818303038152906040527f07c81217000000000000000000000000000000000000000000000000000000007bffffffffffffffffffffffffffffffffffffffffffffffffffffffff19166020820180517bffffffffffffffffffffffffffffffffffffffffffffffffffffffff83818316178352505050506108cd565b505050565b61082c8383836040516024016107aa93929190610cc9565b6040516020818303038152906040527fe0e9ad4f000000000000000000000000000000000000000000000000000000007bffffffffffffffffffffffffffffffffffffffffffffffffffffffff19166020820180517bffffffffffffffffffffffffffffffffffffffffffffffffffffffff83818316178352505050506108cd565b505050565b6108c98282604051602401610847929190610d4c565b6040516020818303038152906040527f9710a9d0000000000000000000000000000000000000000000000000000000007bffffffffffffffffffffffffffffffffffffffffffffffffffffffff19166020820180517bffffffffffffffffffffffffffffffffffffffffffffffffffffffff83818316178352505050506108cd565b5050565b60008151905060006a636f6e736f6c652e6c6f679050602083016000808483855afa5050505050565b82805461090290610fa2565b90600052602060002090601f016020900481019282610924576000855561096b565b82601f1061093d57805160ff191683800117855561096b565b8280016001018555821561096b579182015b8281111561096a57825182559160200191906001019061094f565b5b509050610978919061097c565b5090565b5b8082111561099557600081600090555060010161097d565b5090565b60006109ac6109a784610e2c565b610e07565b9050828152602081018484840111156109c457600080fd5b6109cf848285610f60565b509392505050565b6000813590506109e681611144565b92915050565b600082601f8301126109fd57600080fd5b8135610a0d848260208601610999565b91505092915050565b600060208284031215610a2857600080fd5b6000610a36848285016109d7565b91505092915050565b600060208284031215610a5157600080fd5b600082013567ffffffffffffffff811115610a6b57600080fd5b610a77848285016109ec565b91505092915050565b6000610a8c8383610c02565b905092915050565b610a9d81610f24565b82525050565b610aac81610f24565b82525050565b6000610abd82610e6d565b610ac78185610e90565b935083602082028501610ad985610e5d565b8060005b85811015610b155784840389528151610af68582610a80565b9450610b0183610e83565b925060208a01995050600181019050610add565b50829750879550505050505092915050565b6000610b3282610e78565b610b3c8185610eac565b9350610b4c818560208601610f6f565b610b5581611092565b840191505092915050565b6000610b6b82610e78565b610b758185610ebd565b9350610b85818560208601610f6f565b610b8e81611092565b840191505092915050565b6000610ba6602783610ebd565b9150610bb1826110a3565b604082019050919050565b6000610bc9603583610ebd565b9150610bd4826110f2565b604082019050919050565b6000610bec600083610ea1565b9150610bf782611141565b600082019050919050565b6000606083016000830151610c1a6000860182610a94565b5060208301518482036020860152610c328282610b27565b9150506040830151610c476040860182610c52565b508091505092915050565b610c5b81610f56565b82525050565b610c6a81610f56565b82525050565b6000610c7b82610bdf565b9150819050919050565b60006020820190508181036000830152610c9f8184610ab2565b905092915050565b60006020820190508181036000830152610cc18184610b60565b905092915050565b60006060820190508181036000830152610ce38186610b60565b9050610cf26020830185610aa3565b8181036040830152610d048184610b60565b9050949350505050565b60006060820190508181036000830152610d288186610b60565b9050610d376020830185610aa3565b610d446040830184610c61565b949350505050565b60006040820190508181036000830152610d668185610b60565b9050610d756020830184610c61565b9392505050565b60006020820190508181036000830152610d9581610b99565b9050919050565b60006020820190508181036000830152610db581610bbc565b9050919050565b6000602082019050610dd16000830184610c61565b92915050565b6000604082019050610dec6000830185610c61565b8181036020830152610dfe8184610b60565b90509392505050565b6000610e11610e22565b9050610e1d8282610fd4565b919050565b6000604051905090565b600067ffffffffffffffff821115610e4757610e46611063565b5b610e5082611092565b9050602081019050919050565b6000819050602082019050919050565b600081519050919050565b600081519050919050565b6000602082019050919050565b600082825260208201905092915050565b600081905092915050565b600082825260208201905092915050565b600082825260208201905092915050565b6000610ed982610f56565b9150610ee483610f56565b9250827fffffffffffffffffffffffffffffffffffffffffffffffffffffffffffffffff03821115610f1957610f18611005565b5b828201905092915050565b6000610f2f82610f36565b9050919050565b600073ffffffffffffffffffffffffffffffffffffffff82169050919050565b6000819050919050565b82818337600083830152505050565b60005b83811015610f8d578082015181840152602081019050610f72565b83811115610f9c576000848401525b50505050565b60006002820490506001821680610fba57607f821691505b60208210811415610fce57610fcd611034565b5b50919050565b610fdd82611092565b810181811067ffffffffffffffff82111715610ffc57610ffb611063565b5b80604052505050565b7f4e487b7100000000000000000000000000000000000000000000000000000000600052601160045260246000fd5b7f4e487b7100000000000000000000000000000000000000000000000000000000600052602260045260246000fd5b7f4e487b7100000000000000000000000000000000000000000000000000000000600052604160045260246000fd5b6000601f19601f8301169050919050565b7f4661696c656420746f207769746864726177206d6f6e65792066726f6d20636f60008201527f6e74726163742e00000000000000000000000000000000000000000000000000602082015250565b7f547279696e6720746f207769746864726177206d6f7265206d6f6e657920746860008201527f616e207468697320636f6e7472616374206861732e0000000000000000000000602082015250565b50565b61114d81610f24565b811461115857600080fd5b5056fea26469706673582212200173a833254465bb0159a4ec51ad79dafb1f7340a9dc75439d61d8aeeb0df2a264736f6c6343000804003354686973206973206d7920736d61727420636f6e74726163742e20546865726520617265206d616e79206c696b6520746869732e204275742c2074686973206f6e65206973206d696e652e",
  "linkReferences": {},
  "deployedLinkReferences": {}
}