{
  "_format": "hh-sol-artifact-1",
  "contractName": "WavePortal",
  "sourceName": "contracts/WavePortal.sol",
  "abi": [
    {
      "inputs": [],
      "stateMutability": "nonpayable",
      "type": "constructor"
    },
    {
      "anonymous": false,
      "inputs": [
        {
          "indexed": true,
          "internalType": "address",
          "name": "from",
          "type": "address"
        },
        {
          "indexed": false,
          "internalType": "uint256",
          "name": "timestamp",
          "type": "uint256"
        },
        {
          "indexed": false,
          "internalType": "string",
          "name": "message",
          "type": "string"
        }
      ],
      "name": "NewWave",
      "type": "event"
    },
    {
      "inputs": [
        {
          "internalType": "address",
          "name": "",
          "type": "address"
        }
      ],
      "name": "addressToWaves",
      "outputs": [
        {
          "internalType": "uint256",
          "name": "",
          "type": "uint256"
        }
      ],
      "stateMutability": "view",
      "type": "function"
    },
    {
      "inputs": [
        {
          "internalType": "address",
          "name": "_address",
          "type": "address"
        }
      ],
      "name": "getAddressToWaves",
      "outputs": [
        {
          "internalType": "uint256",
          "name": "",
          "type": "uint256"
        }
      ],
      "stateMutability": "view",
      "type": "function"
    },
    {
      "inputs": [],
      "name": "getAllWaves",
      "outputs": [
        {
          "components": [
            {
              "internalType": "address",
              "name": "waver",
              "type": "address"
            },
            {
              "internalType": "string",
              "name": "message",
              "type": "string"
            },
            {
              "internalType": "uint256",
              "name": "timestamp",
              "type": "uint256"
            }
          ],
          "internalType": "struct WavePortal.Wave[]",
          "name": "",
          "type": "tuple[]"
        }
      ],
      "stateMutability": "view",
      "type": "function"
    },
    {
      "inputs": [],
      "name": "getTotalWaves",
      "outputs": [
        {
          "internalType": "uint256",
          "name": "",
          "type": "uint256"
        }
      ],
      "stateMutability": "view",
      "type": "function"
    },
    {
      "inputs": [
        {
          "internalType": "string",
          "name": "_message",
          "type": "string"
        }
      ],
      "name": "wave",
      "outputs": [],
      "stateMutability": "nonpayable",
      "type": "function"
    }
  ],
  "bytecode": "0x60806040523480156200001157600080fd5b50620000416040518060800160405280604b815260200162001116604b91396200004760201b6200055e1760201c565b620001db565b620000e7816040516024016200005e919062000154565b6040516020818303038152906040527f41304fac000000000000000000000000000000000000000000000000000000007bffffffffffffffffffffffffffffffffffffffffffffffffffffffff19166020820180517bffffffffffffffffffffffffffffffffffffffffffffffffffffffff8381831617835250505050620000ea60201b60201c565b50565b60008151905060006a636f6e736f6c652e6c6f679050602083016000808483855afa5050505050565b6000620001208262000178565b6200012c818562000183565b93506200013e81856020860162000194565b6200014981620001ca565b840191505092915050565b6000602082019050818103600083015262000170818462000113565b905092915050565b600081519050919050565b600082825260208201905092915050565b60005b83811015620001b457808201518184015260208101905062000197565b83811115620001c4576000848401525b50505050565b6000601f19601f8301169050919050565b610f2b80620001eb6000396000f3fe608060405234801561001057600080fd5b50600436106100575760003560e01c80632d78cbf01461005c57806343882ff01461008c578063449d46c0146100bc5780639a2cdc08146100d8578063bd43a908146100f6575b600080fd5b6100766004803603810190610071919061091a565b610114565b6040516100839190610c02565b60405180910390f35b6100a660048036038101906100a1919061091a565b61012c565b6040516100b39190610c02565b60405180910390f35b6100d660048036038101906100d19190610943565b6101f4565b005b6100e06103c2565b6040516100ed9190610c02565b60405180910390f35b6100fe61040d565b60405161010b9190610b0b565b60405180910390f35b60016020528060005260406000206000915090505481565b60006101ad6040518060400160405280601881526020017f25732077617665642061742075732025642074696d657321000000000000000081525083600160008673ffffffffffffffffffffffffffffffffffffffff1673ffffffffffffffffffffffffffffffffffffffff168152602001908152602001600020546105f7565b600160008373ffffffffffffffffffffffffffffffffffffffff1673ffffffffffffffffffffffffffffffffffffffff168152602001908152602001600020549050919050565b60016000808282546102069190610d09565b9250508190555060018060003373ffffffffffffffffffffffffffffffffffffffff1673ffffffffffffffffffffffffffffffffffffffff168152602001908152602001600020600082825461025c9190610d09565b925050819055506102a36040518060400160405280601b81526020017f25732068617320776176656420772f206d6573736167653a20257300000000008152503383610696565b600260405180606001604052803373ffffffffffffffffffffffffffffffffffffffff16815260200183815260200142815250908060018154018082558091505060019003906000526020600020906003020160009091909190915060008201518160000160006101000a81548173ffffffffffffffffffffffffffffffffffffffff021916908373ffffffffffffffffffffffffffffffffffffffff16021790555060208201518160010190805190602001906103629291906107fa565b506040820151816002015550503373ffffffffffffffffffffffffffffffffffffffff167f5f7e16dc676677766a70e9c5628aa6c54ddb8b6e5188e2ae1e1f17f1ffbea71642836040516103b7929190610c1d565b60405180910390a250565b60006104056040518060400160405280601781526020017f5765206861766520256420746f74616c20776176657321000000000000000000815250600054610735565b600054905090565b60606002805480602002602001604051908101604052809291908181526020016000905b8282101561055557838290600052602060002090600302016040518060600160405290816000820160009054906101000a900473ffffffffffffffffffffffffffffffffffffffff1673ffffffffffffffffffffffffffffffffffffffff1673ffffffffffffffffffffffffffffffffffffffff1681526020016001820180546104ba90610ddd565b80601f01602080910402602001604051908101604052809291908181526020018280546104e690610ddd565b80156105335780601f1061050857610100808354040283529160200191610533565b820191906000526020600020905b81548152906001019060200180831161051657829003601f168201915b5050505050815260200160028201548152505081526020019060010190610431565b50505050905090565b6105f4816040516024016105729190610b2d565b6040516020818303038152906040527f41304fac000000000000000000000000000000000000000000000000000000007bffffffffffffffffffffffffffffffffffffffffffffffffffffffff19166020820180517bffffffffffffffffffffffffffffffffffffffffffffffffffffffff83818316178352505050506107d1565b50565b61069183838360405160240161060f93929190610b94565b6040516020818303038152906040527f07c81217000000000000000000000000000000000000000000000000000000007bffffffffffffffffffffffffffffffffffffffffffffffffffffffff19166020820180517bffffffffffffffffffffffffffffffffffffffffffffffffffffffff83818316178352505050506107d1565b505050565b6107308383836040516024016106ae93929190610b4f565b6040516020818303038152906040527fe0e9ad4f000000000000000000000000000000000000000000000000000000007bffffffffffffffffffffffffffffffffffffffffffffffffffffffff19166020820180517bffffffffffffffffffffffffffffffffffffffffffffffffffffffff83818316178352505050506107d1565b505050565b6107cd828260405160240161074b929190610bd2565b6040516020818303038152906040527f9710a9d0000000000000000000000000000000000000000000000000000000007bffffffffffffffffffffffffffffffffffffffffffffffffffffffff19166020820180517bffffffffffffffffffffffffffffffffffffffffffffffffffffffff83818316178352505050506107d1565b5050565b60008151905060006a636f6e736f6c652e6c6f679050602083016000808483855afa5050505050565b82805461080690610ddd565b90600052602060002090601f016020900481019282610828576000855561086f565b82601f1061084157805160ff191683800117855561086f565b8280016001018555821561086f579182015b8281111561086e578251825591602001919060010190610853565b5b50905061087c9190610880565b5090565b5b80821115610899576000816000905550600101610881565b5090565b60006108b06108ab84610c72565b610c4d565b9050828152602081018484840111156108c857600080fd5b6108d3848285610d9b565b509392505050565b6000813590506108ea81610ede565b92915050565b600082601f83011261090157600080fd5b813561091184826020860161089d565b91505092915050565b60006020828403121561092c57600080fd5b600061093a848285016108db565b91505092915050565b60006020828403121561095557600080fd5b600082013567ffffffffffffffff81111561096f57600080fd5b61097b848285016108f0565b91505092915050565b60006109908383610a9d565b905092915050565b6109a181610d5f565b82525050565b6109b081610d5f565b82525050565b60006109c182610cb3565b6109cb8185610cd6565b9350836020820285016109dd85610ca3565b8060005b85811015610a1957848403895281516109fa8582610984565b9450610a0583610cc9565b925060208a019950506001810190506109e1565b50829750879550505050505092915050565b6000610a3682610cbe565b610a408185610ce7565b9350610a50818560208601610daa565b610a5981610ecd565b840191505092915050565b6000610a6f82610cbe565b610a798185610cf8565b9350610a89818560208601610daa565b610a9281610ecd565b840191505092915050565b6000606083016000830151610ab56000860182610998565b5060208301518482036020860152610acd8282610a2b565b9150506040830151610ae26040860182610aed565b508091505092915050565b610af681610d91565b82525050565b610b0581610d91565b82525050565b60006020820190508181036000830152610b2581846109b6565b905092915050565b60006020820190508181036000830152610b478184610a64565b905092915050565b60006060820190508181036000830152610b698186610a64565b9050610b7860208301856109a7565b8181036040830152610b8a8184610a64565b9050949350505050565b60006060820190508181036000830152610bae8186610a64565b9050610bbd60208301856109a7565b610bca6040830184610afc565b949350505050565b60006040820190508181036000830152610bec8185610a64565b9050610bfb6020830184610afc565b9392505050565b6000602082019050610c176000830184610afc565b92915050565b6000604082019050610c326000830185610afc565b8181036020830152610c448184610a64565b90509392505050565b6000610c57610c68565b9050610c638282610e0f565b919050565b6000604051905090565b600067ffffffffffffffff821115610c8d57610c8c610e9e565b5b610c9682610ecd565b9050602081019050919050565b6000819050602082019050919050565b600081519050919050565b600081519050919050565b6000602082019050919050565b600082825260208201905092915050565b600082825260208201905092915050565b600082825260208201905092915050565b6000610d1482610d91565b9150610d1f83610d91565b9250827fffffffffffffffffffffffffffffffffffffffffffffffffffffffffffffffff03821115610d5457610d53610e40565b5b828201905092915050565b6000610d6a82610d71565b9050919050565b600073ffffffffffffffffffffffffffffffffffffffff82169050919050565b6000819050919050565b82818337600083830152505050565b60005b83811015610dc8578082015181840152602081019050610dad565b83811115610dd7576000848401525b50505050565b60006002820490506001821680610df557607f821691505b60208210811415610e0957610e08610e6f565b5b50919050565b610e1882610ecd565b810181811067ffffffffffffffff82111715610e3757610e36610e9e565b5b80604052505050565b7f4e487b7100000000000000000000000000000000000000000000000000000000600052601160045260246000fd5b7f4e487b7100000000000000000000000000000000000000000000000000000000600052602260045260246000fd5b7f4e487b7100000000000000000000000000000000000000000000000000000000600052604160045260246000fd5b6000601f19601f8301169050919050565b610ee781610d5f565b8114610ef257600080fd5b5056fea2646970667358221220f54b82023d178d78aa6c52b22307fb75b54bf5b2d845e67c13f60d3e6e23aebc64736f6c6343000804003354686973206973206d7920736d61727420636f6e74726163742e20546865726520617265206d616e79206c696b6520746869732e204275742c2074686973206f6e65206973206d696e652e",
  "linkReferences": {},
  "deployedLinkReferences": {}
}