{
  "_format": "hh-sol-artifact-1",
  "contractName": "WavePortal",
  "sourceName": "contracts/WavePortal.sol",
  "abi": [
    {
      "inputs": [],
      "stateMutability": "nonpayable",
      "type": "constructor"
    },
    {
      "inputs": [
        {
          "internalType": "address",
          "name": "",
          "type": "address"
        }
      ],
      "name": "addressToWaves",
      "outputs": [
        {
          "internalType": "uint256",
          "name": "",
          "type": "uint256"
        }
      ],
      "stateMutability": "view",
      "type": "function"
    },
    {
      "inputs": [
        {
          "internalType": "address",
          "name": "_address",
          "type": "address"
        }
      ],
      "name": "getAddressToWaves",
      "outputs": [
        {
          "internalType": "uint256",
          "name": "",
          "type": "uint256"
        }
      ],
      "stateMutability": "view",
      "type": "function"
    },
    {
      "inputs": [],
      "name": "getTotalWaves",
      "outputs": [
        {
          "internalType": "uint256",
          "name": "",
          "type": "uint256"
        }
      ],
      "stateMutability": "view",
      "type": "function"
    },
    {
      "inputs": [],
      "name": "totalWaves",
      "outputs": [
        {
          "internalType": "uint256",
          "name": "",
          "type": "uint256"
        }
      ],
      "stateMutability": "view",
      "type": "function"
    },
    {
      "inputs": [],
      "name": "wave",
      "outputs": [],
      "stateMutability": "nonpayable",
      "type": "function"
    }
  ],
  "bytecode": "0x608060405234801561001057600080fd5b5061003c6040518060800160405280604b8152602001610a2d604b913961004160201b6102e31760201c565b6101c4565b6100dd816040516024016100559190610142565b6040516020818303038152906040527f41304fac000000000000000000000000000000000000000000000000000000007bffffffffffffffffffffffffffffffffffffffffffffffffffffffff19166020820180517bffffffffffffffffffffffffffffffffffffffffffffffffffffffff83818316178352505050506100e060201b60201c565b50565b60008151905060006a636f6e736f6c652e6c6f679050602083016000808483855afa5050505050565b600061011482610164565b61011e818561016f565b935061012e818560208601610180565b610137816101b3565b840191505092915050565b6000602082019050818103600083015261015c8184610109565b905092915050565b600081519050919050565b600082825260208201905092915050565b60005b8381101561019e578082015181840152602081019050610183565b838111156101ad576000848401525b50505050565b6000601f19601f8301169050919050565b61085a806101d36000396000f3fe608060405234801561001057600080fd5b50600436106100575760003560e01c8063291bcab31461005c5780632d78cbf01461007a57806343882ff0146100aa5780636fe15b44146100da5780639a2cdc08146100e4575b600080fd5b610064610102565b60405161007191906106d1565b60405180910390f35b610094600480360381019061008f9190610591565b610108565b6040516100a191906106d1565b60405180910390f35b6100c460048036038101906100bf9190610591565b610120565b6040516100d191906106d1565b60405180910390f35b6100e26101e8565b005b6100ec610298565b6040516100f991906106d1565b60405180910390f35b60005481565b60016020528060005260406000206000915090505481565b60006101a16040518060400160405280601881526020017f25732077617665642061742075732025642074696d657321000000000000000081525083600160008673ffffffffffffffffffffffffffffffffffffffff1673ffffffffffffffffffffffffffffffffffffffff1681526020019081526020016000205461037c565b600160008373ffffffffffffffffffffffffffffffffffffffff1673ffffffffffffffffffffffffffffffffffffffff168152602001908152602001600020549050919050565b60016000808282546101fa9190610708565b9250508190555060018060003373ffffffffffffffffffffffffffffffffffffffff1673ffffffffffffffffffffffffffffffffffffffff16815260200190815260200160002060008282546102509190610708565b925050819055506102966040518060400160405280600c81526020017f25732068617320776176656400000000000000000000000000000000000000008152503361041b565b565b60006102db6040518060400160405280601781526020017f5765206861766520256420746f74616c207761766573210000000000000000008152506000546104b7565b600054905090565b610379816040516024016102f79190610611565b6040516020818303038152906040527f41304fac000000000000000000000000000000000000000000000000000000007bffffffffffffffffffffffffffffffffffffffffffffffffffffffff19166020820180517bffffffffffffffffffffffffffffffffffffffffffffffffffffffff8381831617835250505050610553565b50565b61041683838360405160240161039493929190610663565b6040516020818303038152906040527f07c81217000000000000000000000000000000000000000000000000000000007bffffffffffffffffffffffffffffffffffffffffffffffffffffffff19166020820180517bffffffffffffffffffffffffffffffffffffffffffffffffffffffff8381831617835250505050610553565b505050565b6104b38282604051602401610431929190610633565b6040516020818303038152906040527f319af333000000000000000000000000000000000000000000000000000000007bffffffffffffffffffffffffffffffffffffffffffffffffffffffff19166020820180517bffffffffffffffffffffffffffffffffffffffffffffffffffffffff8381831617835250505050610553565b5050565b61054f82826040516024016104cd9291906106a1565b6040516020818303038152906040527f9710a9d0000000000000000000000000000000000000000000000000000000007bffffffffffffffffffffffffffffffffffffffffffffffffffffffff19166020820180517bffffffffffffffffffffffffffffffffffffffffffffffffffffffff8381831617835250505050610553565b5050565b60008151905060006a636f6e736f6c652e6c6f679050602083016000808483855afa5050505050565b60008135905061058b8161080d565b92915050565b6000602082840312156105a357600080fd5b60006105b18482850161057c565b91505092915050565b6105c38161075e565b82525050565b60006105d4826106ec565b6105de81856106f7565b93506105ee81856020860161079a565b6105f7816107fc565b840191505092915050565b61060b81610790565b82525050565b6000602082019050818103600083015261062b81846105c9565b905092915050565b6000604082019050818103600083015261064d81856105c9565b905061065c60208301846105ba565b9392505050565b6000606082019050818103600083015261067d81866105c9565b905061068c60208301856105ba565b6106996040830184610602565b949350505050565b600060408201905081810360008301526106bb81856105c9565b90506106ca6020830184610602565b9392505050565b60006020820190506106e66000830184610602565b92915050565b600081519050919050565b600082825260208201905092915050565b600061071382610790565b915061071e83610790565b9250827fffffffffffffffffffffffffffffffffffffffffffffffffffffffffffffffff03821115610753576107526107cd565b5b828201905092915050565b600061076982610770565b9050919050565b600073ffffffffffffffffffffffffffffffffffffffff82169050919050565b6000819050919050565b60005b838110156107b857808201518184015260208101905061079d565b838111156107c7576000848401525b50505050565b7f4e487b7100000000000000000000000000000000000000000000000000000000600052601160045260246000fd5b6000601f19601f8301169050919050565b6108168161075e565b811461082157600080fd5b5056fea264697066735822122069809af452b36ddb49908095d142a3a8cc0bd2f4a6295884784bc396783670fd64736f6c6343000804003354686973206973206d7920736d61727420636f6e74726163742e20546865726520617265206d616e79206c696b6520746869732e204275742c2074686973206f6e65206973206d696e652e",
  "linkReferences": {},
  "deployedLinkReferences": {}
}